:020000040000FA
:0600000002010A022B635D
:03002B00022FE4BD
:03003300022FC6D3
:03003B00022FFD94
:03004300022F7A0F
:03005300022BD6A7
:03006B00022FA0C1
:10008300022A17E5C754F84401F5C7790122000095
:100093000080FB120086B900030200F4E4792178A2
:1000A30008B800028004F709D8FCE479297802B87B
:1000B30000028004F709D8FCE490028178AB79113F
:1000C3008002F0A3D8FCD9FA90132BAA82AB8390B9
:1000D300013A788079048015E493A3AC82AD838AD6
:1000E300828B83F0A3AA82AB838C828D83D8E9D9D8
:1000F300E775825F7583F1740412011C7582917533
:100103008300740012011C75D00075813F7518813E
:10011300751902759F00020096C09FF59FE473D086
:100123009F22D083D082C09FE493C0E0740193C028
:10013300E0740293F59F22330645066F063906FFE6
:100143000000B4000028002800283075A000A0009B
:10015300A000A00000080008E001F000100010005B
:10016300100010001000100050005000500010004C
:100173001000D0070000000000000F000100050080
:10018300307507001000010081FF0000FFB307D1A5
:1001930007B907FF02020208025000A0000000E8AE
:1001A3000302BD8B0100007E8B02A38B010000883C
:1001B3001302A98B010000B70202A38B010000897F
:1001C3001302AB8B010000CD0202A38B0100008A56
:1001D3001302AF8B010000CF0202A38B0100008B3F
:1001E3001302B18B080000D00202A38B0100008C24
:1001F3001302B38B0100008D13FFFF0100FF2002E8
:10020300BD8B010000818B02A38B010000F213025E
:10021300B58B000000000002A78B030000B103FDB3
:100223000EFD0EFD0EFD0EFD0EFD0EFD0EFD0EFD73
:100233000EFD0EFD0EFD0EFD0EFB101911F510390E
:100243001251123312FFFF020202020202020202E1
:10025300010D000000100102BD8B0100008A8B021A
:10026300A38B0100003B1402B98B010000710E0245
:10027300A38B0100003C1402B78B010000C6870268
:10028300A38B0100003D1402AD8B010000848702A3
:10029300A38B0100003E14029D8B010000838502A5
:1002A300A38B0100003F14028D8B010000B985026E
:1002B300A38B0100004014028F8B010000DD850237
:1002C300A38B010000411402918B0100009585026C
:1002D300A38B010000421402938B01000068870284
:1002E300A38B010000431402958B01000044140109
:1002F300E803053F1002FF00013075030201060009
:1003030000000000000000000000000000000000EA
:100313000000000000000000000000FFFF06008056
:100323000CE803FEFF0140602030109080C0010202
:1003330001060302F0FF0201061AFF4C000215E258
:10034300C56DB5DFFB48D2B060D0F5A71096E000CD
:10035300010002CD09180F181B18211815180A439C
:1003630068617261637465726973746963203100D3
:1003730002436861726163746572697374696320AF
:1003830032000843686172616374657269737469EA
:10039300632033001043686172616374657269732B
:1003A3007469632034000243686172616374657227
:1003B30069737469632035001643686172616374FD
:1003C3006572697374696320360002BD8B01000096
:1003D300848B02A38B010000521502C18B03000022
:1003E300D61202A58B010000531502A38B01000056
:1003F300641502C38B010000D71202A58B01000014
:10040300651502A38B010000761502C58B0200005F
:10041300D81202A58B010000771502A38B010000FF
:10042300881502C78B000000D91202A78B030000B6
:10043300DA1202A58B010000891502A38B010000CB
:100443009A1502C98B040000E61202A58B01000075
:100453009B1502A38B010000AC1502CB8B0300009C
:10046300EB1202A78B030000FF1202A58B01000011
:10047300AD153031323334353637383941424344A0
:10048300454600286E756C6C20706F696E746572DA
:1004930029003F3F3F000000807F0000803FF902BA
:1004A3001550B743BA510000204100E7DB2E00008E
:1004B300A04008000000120125C2E604120125D85D
:1004C300E60412012505E70412012535E7041201AC
:1004D3002556E70412012587E704120125D8E7040E
:1004E300120125EFE70412012565E0041201257CC2
:1004F300E004120125ABE004120125E4E00412013B
:10050300250CE1041201253AE10412012551E1040D
:1005130012012568E1041201257EE104120125A5DB
:10052300E104120125B8E104120125CEE104120110
:1005330025E1E10412012506E2041201257E9A0356
:100543001201257D9B03120125A79B03120125FCA4
:100553009B031201251D9C03120125369C031201E6
:1005630025389C03120125599C031201255C9D0328
:10057300120125199E03120125E69E031201254A45
:100583009F03120125E19F03120125E49F0312013A
:10059300256AA003120125ADA003120125FFA003C4
:1005A30012012536A103120125BCA1031201254521
:1005B300A2031201258EA2031201259BA20312019D
:1005C300259EA203120125FCA20312012514A303F5
:1005D3001201258EA30312012591A303120125B451
:1005E300A303120125B7A3031201255EA40312017D
:1005F3002581A40312012599A403120125C9A4038B
:10060300120125D6A403120125D9A40312012545FD
:10061300A50312012533A603120125E9A60312013E
:10062300251AC903120125FAC9031201257ACA033F
:100633001201259ACA03120125D8CA031201252BD8
:10064300CB0312012593CB0312012524CC03120102
:1006530025EFCC03120125FECF031201256AD10336
:100663001201258DD10312012552FC02120125E34B
:10067300FD0212012534FE0212012593FE0212012E
:1006830025A1FE02120125CAFE021201258BAF0429
:10069300120125B3AF04120125E1AF04120125189D
:1006A300B00412012580B004120125C9B00412015F
:1006B3002514B10412012552B1041201258FB1048E
:1006C300120125BDB10412012564B2041201256E85
:1006D300B2041201257BB204120125AEB204120149
:1006E3002570B3041201257CB30412012594B304CD
:1006F3001201259EB3041201251CB40412012535F1
:10070300EB0412012543EB041201255BEB041201F8
:100713002573EB041201258BEB0412012543D1024F
:10072300120125E1D10212012559D2021201256ECF
:10073300D302120125A8D30212012551D4021201BA
:100743002526D5021201258AD602120125E1D602F9
:1007530012012568D7021201254FD8021201259CE8
:10076300D8021201252AD9021201254ED9021201FB
:100773002523DB0212012564DB0212012586DB023D
:1007830012012507DC02120125F1DC02120125B753
:10079300DD02120125ECDF021201251D870412017F
:1007A30025EF8704120125988804120125DB8804AC
:1007B300120125688904120125F48904120125D543
:1007C3008A04120125048B04120125008C041201F2
:1007D30025488C041201254A8D041201258E8D04AF
:1007E300120125B48D04120125D3EF04120125BF94
:1007F300C004120125D5C004120125FBC004120157
:100803002523C2041201252DC20412012586C30427
:1008130012012586C40412012590C4041201256522
:10082300AA041201259AAB04120125CDAB041201CF
:100833002517AC04120125D5AD0412012500800251
:100843001201257E80021201258E8002120125717C
:1008530081021201259F8102120125AA8102120140
:100863002594820212012530830212012534850268
:10087300120125EB86021201256787021201254426
:100883008802120125728B02120125108C021201BB
:10089300256D8D02120125E08E02120125898F023A
:1008A300120125D28F02120125099002120125AEF1
:1008B30090021201252C9102120125F4C1021201AA
:1008C3002549C2021201258EC3021201259EC302CD
:1008D300120125C1C3021201250CC402120125B164
:1008E300C402120125A7C50212012571C602120115
:1008F30025E9C7021201252BC802120125C9C80226
:1009030012012516C9021201253CC9021201252A2A
:10091300CB021201252FCB0212012510CD021201A9
:100923002564CD02120125C6CD02120125EECD02AA
:1009330012012592CE0212012554CF021201258500
:10094300CF0212012588CF02120125D0CF02120156
:100953002512D00212012579D00212012566D8048E
:1009630012012579D80412012582D8041201259B8E
:10097300D804120125E6D804120125C1D9041201B5
:100983002550DA041201259BDA041201255EAA011F
:100993001201256EAA01120125D1AA011201251601
:1009A300AB01120125C6AB011201259AAC0112015C
:1009B3002502AD011201252BAD011201255BAD010D
:1009C3001201256FAF011201254BB1011201252B35
:1009D300B30112012563B401120125DCB601120132
:1009E30025C8B7011201250EB9011201251BBA0151
:1009F3001201255DBA0112012595BA01120125AF35
:100A0300BA0112012517BB01120125B1BF01120161
:100A13002552C001120125A6C001120125CDC00136
:100A23001201250BC1011201252AC1011201257EE4
:100A3300C10112012557C201120125DEC3011201B2
:100A43002567C40112012532F4031201253CF40386
:100A5300120125D8F4031201259FF503120125BEC7
:100A6300F503120125E4F50312012523F603120110
:100A7300255BF60312012584F60312012501F70312
:100A830012012516F7031201252BF7031201255333
:100A9300F7031201258DF703120125B1F7031201A4
:100AA300257AF80312012590F803120125A3F80310
:100AB300120125B8F8031201254AF903120125840E
:100AC300F903120125B5F903120125E1F903120116
:100AD3002525FA0312012595FA03120125E9FA03E4
:100AE30012012532FB031201255CFB031201258150
:100AF300FB03120125EFB804120125B9B904120151
:100B0300259CBA0412012512BB0412012554BB040F
:100B130012012581BC04120125CFF001120125F831
:100B2300F00112012511F10112012556F201120102
:100B33002534F30112012553F301120125E0F301DA
:100B430012012523F4011201255BF501120125C7CA
:100B5300F501120125BDF7011201254BFA0112011E
:100B630025DEFA01120125B2FB0112012555FC0114
:100B73001201253FFD01120125ABFE0112012541A2
:100B8300FF0112012506E8041201256FE804120192
:100B930025C3E804120125EAE8041201251BE90430
:100BA300120125A9FB0312012516FC03120125617D
:100BB300FC0312012556FD0312012552FE03120107
:100BC300253CFF03120125C5D20312012507D303D8
:100BD300120125E1D303120125BAD403120125B56D
:100BE300D50312012594D60312012500D703120160
:100BF30025E2D7031201254DD803120125B4D803EA
:100C0300120125B7D803120125E2D8031201255397
:100C1300D903120125E6D9031201254FDA03120184
:100C23002564DA03120125ACDA03120125C5DA03C0
:100C33001201252ADB031201252DDB0312012518DE
:100C4300CC0412012554CC0412012592CC041201C8
:100C5300255CCD04120125CFCD041201250ACE0453
:100C630012012548CE0412012578CE041201259FD6
:100C7300CE041201250ACF041201254CCF04120120
:100C830025515600120125AB5800120125885B003F
:100C9300120125635C00120125AE5C00120125F9E7
:100CA3005C001201250B5D001201254B5D00120152
:100CB30025805D00120125CC5D00120125FB5D003E
:100CC3001201251E5E00120125A55E001201259169
:100CD3005F001201253A620012012525640012010A
:100CE30025686400120125CB65001201250C6600FE
:100CF3001201250E6700120125EA68001201259FE3
:100D03006900120125396A00120125846F0012015E
:100D130025CA6F001201250870001201253B7200DD
:100D2300120125487400120125187500120125C50A
:100D3300DA0412012565DC0412012554A70312010C
:100D4300257FA70312012566AE031201258AB0038E
:100D530012012545B203120125A2B3031201257026
:100D630030001201250731001201254D3100120117
:100D730025833200120125A832001201253F3400D9
:100D8300120125B93400120125FD34001201257228
:100D93003500120125A13600120125013800120188
:100DA300250339001201256C3A00120125BC3A00D3
:100DB300120125273C00120125913E001201256DE9
:100DC3003F00120125863F00120125E33F00120177
:100DD3002502400012012521400012012524400074
:100DE300120125AA41001201259F42001201259BF1
:100DF3004300120125824400120125B5440012016B
:100E030025254500120125974500120125114600AD
:100E13001201255B46001201253647001201250009
:100E23004800120125074900120125E64900120175
:100E330025714A00120125DF4A00120125534B0098
:100E43001201257C4B001201253B4C001201254A5F
:100E53004F00120125934F00120125D64F001201B6
:100E630025595000120125FD50001201258E510015
:100E7300120125B35100120125FD51001201252550
:100E830052001201256A5200120125E55200120197
:100E9300253F53001201259354001201255055009C
:100EA30012012523560012012583EE02120125D3D8
:100EB300EE02120125DFEE02120125BCEF02120140
:100EC30025ECEF0212012524F002120125A3F00202
:100ED300120125DBF0021201252DF1021201256A10
:100EE300F1021201258FF302120125BBF502120153
:100EF30025B6F70212012591F902120125F97F00A7
:100F0300120125999404120125CB98041201251B83
:100F13009A0412012562B20212012534B9021201A8
:100F2300253AB902120125EABB02120125EE9F04FC
:100F33001201259AA00412012568A1041201259229
:100F4300A104120125E0A304120125D08B01120193
:100F5300251A8C011201250E9B011201258F9C017C
:100F6300120125879D01120125E6A301120125E146
:100F7300A4011201251EA50112012541A50112019B
:100F83002583A5011201258CA50112012596A50132
:100F930012012582A60112012576A7011201250F50
:100FA300A801120125CEC40112012546CF01120169
:100FB300254CCF0112012558D60112012594CF04E7
:100FC30012012592D004120125E8D004120125262E
:100FD300D10412012583D10412012500D204120188
:100FE3002509D20412012515D20412012528D204A1
:100FF30012012564D2041201257AD2041201252993
:101003008E04120125368E04120125508E0412011E
:10101300258F8E04120125CD8E04120125328F04F3
:10102300120125478F04120125528F041201255FF7
:101033008F04120125768F04120125848F04120177
:1010430025938F04120125A88F04120125BD8F0457
:10105300120125C88F04120125D48F04120125E142
:101063008F04120125F08F04120125FB8F04120156
:1010730025209004120125C99004120125D990045A
:10108300120125EE90041201250391041201251D7E
:10109300910412012538910412012555910412017E
:1010A300256091041201251C920412012508930462
:1010B3001201252D93041201253793041201254BA8
:1010C30093041201256A9304120125CB93041201A0
:1010D30025D19304120125D79304120125DD93042E
:1010E300120125E993041201251C9404120125E33E
:1010F300BE031201250FBF03120125F3BF03120123
:10110300258DC203120125A3C303120125C0C40305
:1011130012012563C50312012509C6031201250522
:1011230080031201258780031201253081031201F8
:10113300257882031201258684031201256C850319
:10114300120125A18503120125C385031201256C14
:1011530086031201253C88031201256588031201C9
:1011630025DD88031201250F89031201251C89033C
:101173001201256789031201258B8903120125DCDE
:101183008B03120125E68C03120125428D03120104
:1011930025FBDF021201250CE102120125F0E10219
:1011A300120125FAE10212012504E20212012526A9
:1011B300E20212012532E202120125D6E3021201F4
:1011C3002503E40212012519E5021201256EE50249
:1011D300120125BDE60212012592E702120125EE56
:1011E300E70212012559E8021201258EE8021201D5
:1011F30025D1E8021201259BEB02120125B3EB0274
:1012030012012544EC0212012552EC021201259F22
:10121300EC02120125ADEC0212012519ED021201B7
:101223002594ED02120125EBED02120125C5B3034E
:10123300120125E7B303120125F8B503120125B7FF
:10124300B803120125E1B9031201259FBA03120164
:10125300258BBB03120125ACDE04120125D1DE046C
:1012630012012547DF04120125008004120125091C
:101273008004120125128004120125EA8004120160
:10128300259B8204120125CB8204120125F68204D8
:101293001201252683041201255183041201258599
:1012A3008304120125B18304120125F4830412017E
:1012B300251F8404120125668404120125BB8404BE
:1012C300120125FD8404120125578504120125828C
:1012D3008504120125D1850412012501860412011A
:1012E300252C86041201255A86041201257D8604C5
:1012F300120125E2F0041201250EF1041201253B2F
:10130300F10412012545F10412012555F1041201DE
:1013130025BEE303120125C8E30312012509E403F3
:1013230012012552E4031201258CE403120125E284
:10133300E40312012503E503120125B2E7031201B9
:1013430025BBE7031201250FE80312012538E80343
:1013530012012542E803120125B0E80312012540DA
:10136300E9031201259BE903120125C9E9031201CF
:101373002551EA0312012590EA03120125C5EA0368
:10138300120125D7EA0312012503EB031201250CF1
:10139300EB03120125CEEB031201253EEA041201F1
:1013A30025BBDC04120125F1DC0412012525DD0433
:1013B30012012572DE04120125DAF104120125F06F
:1013C300F104120125FAF104120125BDEE04120104
:1013D30025ADB404120125C0B40412012584B5045B
:1013E300120125C3B504120125E0B5041201251924
:1013F300B60412012566B60412012598B60412013B
:1014030025CFB604120125E2B80412012548EF04E2
:10141300120125B0E304120125D3E30412012502CE
:10142300E4041201259AE404120125B2E404120132
:1014330025F4E4041201255E9A04120125A09A04FE
:10144300120125279B041201257C9B04120125C14F
:101453009B04120125709C04120125CB9C041201EC
:10146300251A9D04120125749D04120125819E04F1
:10147300120125799F04120125B69F04120125AAA2
:10148300D204120125CFD204120125F9D20412018C
:10149300255CF00412012513DB0112012511DD0186
:1014A300120125DEDE011201258BDF011201250B5E
:1014B300E00112012590E001120125B9E0011201BA
:1014C300250BE101120125F1E50112012568E60171
:1014D3001201257FE701120125B9E701120125FA5F
:1014E300E70112012541E90112012570E901120109
:1014F30025C6E9011201250FEA011201257BEA0144
:10150300120125EFEA011201251DEB011201253518
:10151300EB011201254EEC011201255EEC011201D3
:101523002517EE011201252EEE0112012560EE01B1
:10153300120125FDEF0112012591F001120125246D
:10154300EC0412012535EC0412012544F2041201C6
:101553002583F204120125E2FF0212012520EE0485
:1015630012012530EE041201254BEE04120125B3BE
:10157300EE041201253CE904120125C1E90412011C
:101583002525EA041201253DE50412012566E5043B
:10159300120125D1E50412012522E6041201257D5D
:1015A300E604120125DBBC0412012500BD0412016F
:1015B300251DBD041201253ABD041201255FBD049A
:1015C30012012580BD04120125AABD04120125675D
:1015D300BE04120125E5BE041201250CBF0412014D
:1015E3002516BF041201253BC00412012567C80458
:1015F3001201257EC804120125F8C804120125DC56
:10160300C904120125B3CB041201259AC4041201A3
:10161300252AC504120125B3C5041201254FC604AA
:10162300120125E0C60412012590C7041201259E6C
:10163300C7041201251EC80412012531C804120172
:101643002547C80412012551C80412012564C804A2
:10165300120125D5EC041201255AED04120125656A
:10166300ED0412012575ED0412012518E20412019F
:10167300256AE204120125DDE2041201254AE3048E
:101683001201258ED504120125B8D5041201258730
:10169300D60412012563D704120125F4D7041201DD
:1016A30025FCEB03120125C8EC0312012509ED0308
:1016B30012012543ED03120125A1ED03120125F5C6
:1016C300ED0312012553EE03120125E9EE03120186
:1016D30025F1EF031201257BF10312012519F20312
:1016E30012012580F20312012593F20312012587CB
:1016F300F303120125D0F3031201258F8D03120189
:1017030025C19003120125529203120125A99203C8
:10171300120125C69203120125469303120125C225
:101723009403120125919503120125FE98031201DA
:1017330025E899031201252FA20212012555A202C1
:101743001201258AA202120125F6A20212012579AD
:10175300A3021201258BA3021201252DA40212015B
:10176300254FA60212012574A6021201259DA60289
:10177300120125CEA602120125D1A60212012513BC
:10178300A70212012522A7021201252DA702120189
:101793002586A7021201258DA7021201253CA80266
:1017A30012012546A80212012561A802120125761D
:1017B300A802120125A1AA02120125D6AB02120129
:1017C3002542750012012542760012012586760016
:1017D300120125B27700120125847800120125AC8D
:1017E3007800120125147D00120125647D00120189
:1017F30025FD7D00120125337F0012012551DB03F6
:101803001201253BDF031201253CE0031201259B56
:10181300E103120125C3E1031201259CE203120136
:10182300252CE3031201252BA50412012564A5042D
:1018330012012581A504120125D0A60412012570E9
:10184300A7041201259AA80412012523AA04120150
:10185300258DF20412012580ED04120125AAED0461
:10186300120125B8FF01120125BAF204120125DB8A
:101873007F00120125E09102120125FE9602E06627
:10188300701008A3E066700A08A3E066700408A35A
:10189300E06622C008C3E096F50808A3E096420874
:1018A30008A3E096420808A3E0964208A2D265D0B6
:1018B30033E5087001D3D00822C3E7960809E796F9
:1018C3000809E7960809E79622C3E09608A3E0967D
:1018D30008A3E09608A3E09622C008C3E096F508A3
:1018E30008A3E096420808A3E096420808A3E096FE
:1018F30045087001D3D00822080808E630E7111222
:1019030021B7121913080808C64480C618181822EC
:10191300181818E9799EC608CAC608CBC608CCC6EB
:10192300C370207996CACBCC7019798ECBCC701347
:101933007986CC700EF9802ACA33CACB33CBCC3329
:10194300CC331930E7F2CCCBCA3350147004EA30ED
:10195300E00DE4CA3ACACB3BCBCC3CCC500209C322
:10196300E913C6CC182313C6CB18C6CA18C6F92266
:101973001219B320F01430E72B74FFFCFBFA747FC9
:101983008022E4FCFBFA7480801AB48008BC00F265
:10199300BB00EF800F50EBF9E4C39AFAE49BFBE43E
:1019A3009CFCE499C6CC18C6CB18C6CA18C6F92243
:1019B300E4C9C608CAC608CBC6D3330308CCC633AA
:1019C30092F0C3947F402E94184019C9B90704CAF2
:1019D300CBCC225025C309CA33CACB33CBCC33CCAF
:1019E30033D9F422F4600DC9CCC313CB13CBCA1380
:1019F300CAD9F6CC22E4FCFBFA2214FCFBFA22E659
:101A0300C33318461846184622E7C3331947194704
:101A1300194722181818E6084608700AE608C3335F
:101A23007005E633F4220822191919E709470970EA
:101A33000AE709C3337005E733F4220922E60846AF
:101A430008C3134608336002E633F422E709470963
:101A5300C3134709336002E733F422121A406025A7
:101A6300121A4F6020121A027003021A0C08080897
:101A7300E76670101819E766700A1819E7667004AC
:101A83001819E76622F422121A40601C121A4F60DA
:101A930017121A027007121A0C7001D322C0D01247
:101AA3001A0C7006D0D0B322C32233D0D0501430D6
:101AB300E0F6C3E7960809E7960809E7960809E7F9
:101AC30096B32220E0D5E6970809E6970809E6973A
:101AD3000809E697B322121A40601B121A4F6016C8
:101AE300121A027007121A0C600CB322C0D0121A19
:101AF3000C7005D0D022C32233D0D0501330E0EB8A
:101B0300C3E7960809E7960809E7960809E79622C6
:101B130020E0E4E6970809E6970809E6970809E64E
:101B2300972200121A40604F121A4F6012E7548036
:101B330066F6121A167011121A0C703B090909F491
:101B4300F618F618F618F622121A2B7015121A0246
:101B530008080860EAE6447FF618768018E4F61869
:101B6300F622121A026016121A0C7012E4F608F624
:101B730008F608E65480F609090918181822EAC07D
:101B8300E0EBC0E0ECC0E0EDC0E0E687F0A4FBAC26
:101B9300F008E687F0A42CFCE435F0FA1809E68790
:101BA300F0A42C4B60027401CA35F0FCE433FB094A
:101BB300E687F0D2F7A42CCB35F0FC1908E687F0C2
:101BC300A42BCC35F0FBE433FD0819E687F0D2E70C
:101BD300A42C4ACB35F0CD3400FC09E687F0D2E7DC
:101BE300A42DCC35F0FDE433FA0918E687F0D2F7DB
:101BF300A42CCD35F0CA3400FC08E687F0D2E7D236
:101C0300F7A42ACC35F07A7E20E70B0ACB33CBCD71
:101C130033CDCC33CC33CB3350147004ED30E00EE2
:101C2300D2F1E4CD3DCDCC3CCC3B5005DA05C2F13D
:101C3300EB547FC63308E63392F0FBE73309E7330F
:101C4300C39A502D2B70190C0D4C4D70151806E6C8
:101C530008C333700D20F10AA2F013F6E418800BC9
:101C63004024E4F630F002768018F618F618F68071
:101C730024D33B14501074FFA2F013F6187680E4BB
:101C830018F618F6800FA2F013F618E63303F618C9
:101C9300ECF618EDF6D0E0FDD0E0FCD0E0FBD0E0B0
:101CA300FA22121A4F6046121A40603DE968700822
:101CB300F618F618F618F622748067F7121CD9097D
:101CC3000909748067F722121A40601D121A4F70B7
:101CD30005191919801A121A16701F121A2BC370BC
:101CE30003E667331919194007181818220808085A
:101CF30074FFF618F618F618F622121A2B6017124C
:101D03001A0C702192F0121A027019501720F01455
:101D1300080808090909E7F61819E7F61819E7F694
:101D23001819E7F622121A0260E6E869701F08081C
:101D3300E62480F608E436F618547FB47F0CE654A4
:101D4300806007F6E418F618F622181822E9C6CCC4
:101D530008C6CD08C6CE08C6CFC0E0E8C0E0EAC0DA
:101D6300E0EBC0E009E9F809E7FA09E7FBE6F9184F
:101D7300E6F8C3EC98ED99EE9AEBC2E7F5F0EFC203
:101D8300E795F0500E600CEBCFFBEACEFAE9CDF904
:101D9300E8CCF8EAA2E7D2E7FAEB33FB13F5F0EE6F
:101DA300A2E7D2E7FEEF33FFC5F013A2E730E60167
:101DB300B313C5F0C3C0E0C0F07F00C39BFB605BFF
:101DC3009418600C401AD0E023F9D0E0F8021EA862
:101DD3008AF0E9486003D2F0E4AFF0FAF9F8803B07
:101DE300EB30E40D89F0EA6003D2F0E4AFF0F9CA16
:101DF300F8EB30E30D88F0EF6002D2F0AFF0E4CA05
:101E0300C9F8EB54076014FBC3EA13FAE913F9E8C2
:101E130013F8EF135002D2E0FFDBEDD0E0C0E03067
:101E2300E739C3E49FFFF5F0EC98FC42F0ED99FD30
:101E330042F0EE9AFE42F0D0E0F9D0E0F8E5F0602F
:101E43007AE923F9EE20E742D8028067C3EF33FF34
:101E5300EC33FCED33FDEE33FE80EAEC28FCED3988
:101E6300FDEE3AFED0E023F9D0E0F84002801BC338
:101E7300EE13FEED13FDEC13FCEF135002D2E0FF63
:101E830008B800067F7F74FF802EEF3350178CF065
:101E930020F00260100CBC000C0DBD00080EBE004B
:101EA3000408E860DFE933E813FFEE2313FE4F4D28
:101EB3004C8008E95480FFE4FEFDFCEE33EF33F47D
:101EC3007004FCFD7E80D0E0FBD0E0FAD0E0F8D0D7
:101ED300E0CFC618CEC618CDC618CCC6F922121A42
:101EE30040700418181822121A4F700D74FFF61858
:101EF30019F61819F61819F622E7548066F6121A1D
:101F030002700F121A0C70F014F608F608F608F6B1
:101F130080D1121A0C700CF608F608768008E64495
:101F23007F80EC121A2E700C121A1960BFE65480CF
:101F3300F6E480BB121A19700519191980A5E8690E
:101F4300700C763F18768018F618F6E8F922E6CD7D
:101F5300C0E018ECC0E0E633CD33CDD313F6E71978
:101F6300FCE7191933CC33C3947F400ECD9D502425
:101F730008E65480F6E418F6800FF4043D14501478
:101F830008E6447FF6187680E418F618F6D0E0FCED
:101F9300D0E0FD22CCD313CCFD18E4C6CBC0E018AF
:101FA300E4C6CAC0E00808ED08C633E613F618E431
:101FB30033C675F003C3CA97CA09CB97CB199C40A4
:101FC300047D08802EBD000302208A16B6FF050695
:101FD30006081618C3CA33CACB33CB33CA27CA0978
:101FE300CB37CB193CC37D08803E187D0820E75CC6
:101FF300C633C6CA33CACB33CB33DDF1D5F0EB30AE
:10200300E77BCA97CA09CB974ACB199C406F4B70A1
:1020130025E620E0218066187D08C3CA97CA09CB4C
:1020230097CB199CD3C633C6CA33CACB33CB3350F1
:10203300C9DDE7D5F0E1D3E4C636C608C636C6081F
:10204300C636C608C636C61818188031C3CA97CA1A
:1020530009CB97CB199CB34097C633C6CA33CACBB7
:1020630033CB33DD34D5F02EC6A2E0C640C8CA2731
:10207300CA09CB37194A70BECB3CB480B90808E60D
:102083003308E633601F181818D0E0FAD0E0FBD00D
:10209300E0FCD0E0FD22187D08CA27CA09CB37CB64
:1020A300193CD3808013F618E4B67F11F618B6FFF7
:1020B3000EF618C60470D20808768080CAF618F6A1
:1020C30018F680C5080808EAC0E0EBC0E086F0E730
:1020D300A4FA180986F0E7A42AFA180986F0E7A4F7
:1020E3002AFA180986F0E7A42AFA1986F0E7A4FB6E
:1020F300E5F02AFA190886F0E7A42BFBE5F03AFA93
:10210300190886F0E7A42BFBE5F03AFA18180986BC
:10211300F0E7A4C5F02BFBE43AFA1908E7C5F0C6CB
:10212300A426F6E5F03BFBE43AFA1886F0E7A4F6BA
:10213300E5F00826F6E43B08F6E43A08F6D0E0FBBF
:10214300D0E0FA22E4CFC0E0E4CEC0E0E4CDC0E0CA
:10215300E4CCC0E075F020C3E633F608E633F608B6
:10216300E633F608E633F6181818EC33FCED33FDC6
:10217300EE33FEEF33FFC3EC9709ED9709EE9709B2
:10218300EF97191919400FFFEC97FC09ED97FD091B
:10219300EE97FE191906D5F0BEECF709EDF709EE37
:1021A300F709EFF7191919D0E0FCD0E0FDD0E0FEF4
:1021B300D0E0FF22181818E4C396F608E496F60850
:1021C300E496F608E496F6226016080808C6C313D8
:1021D300C618C613C618C613C618C613C6D5E0EA72
:1021E300227009080808226016181818C6C333C6D7
:1021F30008C633C608C633C608C633C6D5E0EA22C6
:10220300E627F60809E637F60809E637F60809E689
:1022130037F622E026F608A3E036F608A3E036F602
:1022230008A3E036F622E026F008A3E036F008A380
:10223300E036F008A3E036F022C3E697F60809E695
:1022430097F60809E697F60809E697F622C3E0C66B
:1022530096F608A3E0C696F608A3E0C696F608A38A
:10226300E0C696F622C3E096F008A3E096F008A332
:10227300E096F008A3E096F022E657F60809E65741
:10228300F60809E657F60809E657F622E056F60877
:10229300A3E056F608A3E056F608A3E056F622E0BC
:1022A30056F008A3E056F008A3E056F008A3E05662
:1022B300F022E066F608A3E066F608A3E066F608F7
:1022C300A3E066F622E0F608A3E0F608A3E0F6082A
:1022D300A3E0F622E6F008A3E6F008A3E6F008A3DD
:1022E300E6F022E0FAA3E0FBA3E0FCA3E0FD22EA90
:1022F300F0A3EBF0A3ECF0A3EDF022CAC0E0E6F00C
:10230300A308DAFAD0E0FA22CAC0E0E0A3C582CC7F
:10231300C582C583CDC583F0A3C582CCC582C583E1
:10232300CDC583DAE6D0E0CA22C3E498F8E499F98C
:1023330012236D8026C3E49AFAE49BFBE920E7E9C4
:1023430012236DE498F8E499F922C3E498F8E49928
:10235300F912236DE498F8E499F9C3E49AFAE49B3B
:10236300FB22EB20E7CFE920E7E0B90010BB000830
:10237300E88AF084F8AAF022E4FBC8FA22EB702280
:102383007B10C833C8C933C9335007C39AC3DBF2C0
:1023930080069A50012ADBEAC833F4C8C933F4C96A
:1023A300FA2275F008E4C833C8C933C933C99AC9D6
:1023B3009B5004C92AC93BD5F0ECFBC833F4C8E4ED
:1023C300C9FA22600D08C6A2E713C618C613C6D5FC
:1023D300E0F322600C08C6C313C618C613C6D5E0C3
:1023E300F422700422600D18C6C333C608C633C670
:1023F300D5E0F41822251810AF08F5184002151976
:102403008008F51840021519D2AF22C0D025181044
:10241300AF08F518500205198008F5185002051980
:10242300D2AFD0D0222518F58210AF08F51840029C
:1024330015198008F51840021519D2AF85198322A2
:102443002518F582E43519F58322E4732518C5822E
:10245300C0E0E51934FFC583C0E0E518C3958224C5
:10246300F810AF088583198582188008858319853C
:102473008218D2AFCEF0A3E520F0A37808E608F0E7
:10248300A3DEFAEFF0A3E58124FAF8E608F0A3E669
:1024930008F0A3E608F0A30808E608F0A3E608F0AE
:1024A300A315811581D0E0FED0E0F81581158115C3
:1024B30081E8C0E0EEC0E0222518C582C0E0E5193E
:1024C30034FFC583C0E0E518C3958224F910AF0833
:1024D3008583198582188008858319858218D2AF70
:1024E300CEF0A3E520F0A37808E608F0A3DEFAEF28
:1024F300F0A3E58124FBF8E608F0A3E608F0A308BF
:1025030008E608F0A3E608F0A315811581D0E0FEE4
:10251300D0E0F815811581E8C0E0EEC0E02285190E
:1025230083851882E0A3FEE0A3F5207808E0A3F6F4
:1025330008DFFAE0A3FFE0A3C0E0E0A3C0E0E0A36C
:10254300C0E0E0A3C0E0E0A3C0E010AF08858218BC
:102553008583198008858218858319D2AFD083D0EB
:1025630082020122851983851882E0A3FEE0A3F588
:10257300207808E0A3F608DFFAE0A3FFE0A3C0E0B9
:10258300E0A3C0E0E0A3C0E0E0A3C0E010AF088593
:1025930082188583198008858218858319D2AFD064
:1025A30083D08222C0D02518C582C0E0E51934FF4C
:1025B300C583C0E0E518C3958224F310AF08858373
:1025C300198582188008858319858218D2AFC8F0CF
:1025D300A3E9F0A3EAF0A3EBF0A37908E709F0A3DA
:1025E300D8FAECF0A3EDF0A3EEF0A3EFF0A3D0E064
:1025F300F0A3D0E0F0A3D0E0F0A3E520F0A3E5F052
:10260300F0A322851983851882E0C0E0A3E0F9A333
:10261300E0FAA3E0FBA37808E0F608A3DFFAE0FC06
:10262300A3E0FDA3E0FEA3E0FFA3E0C0E0A3E0C0BE
:10263300E0A3E0F5D0A3E0F520A3E0A3F5F010AF0D
:10264300088583198582188008858319858218D2A5
:10265300AFD082D083D0E0F8D0E032740480067427
:102663000280027401C0E0F404122428D0E0122294
:10267300FE227404800474028000CCC0E0EDC0E04C
:10268300E518C39CCCAD1950011D10AF068C188DF5
:102693001980068C188D19D2AF12230BD0E0FDD010
:1026A300E0FC22D083D082E9C0E0E493A3C386F0A8
:1026B300C5F095F0F908E493A386F0C5F095F070A2
:1026C3000BE493A3C3994005E9048002A3E475F0E6
:1026D30002A42582F582E5F03583F583D0E0F9E4A1
:1026E30093A3C0E0E493C0E022D083D082ECC0E0A7
:1026F300EDC0E0E493A3FCE493A3FDED4C600D1265
:102703002738EC24FFFCED34FFFD80EFE493A3FCBA
:10271300E493A3FDED4C600D122777EC24FFFCED51
:1027230034FFFD80EFD0E0FDD0E0FCE493A3C0E0F4
:10273300E493C0E022C0E0C3E49396087401939647
:1027430018400FE4936670080874019366187000CC
:102753007019A3A3C3E49396087401939618A3A3D3
:10276300400DD0E0D0E0D0E0022728A3A3A3A3A389
:10277300A3D0E022C0E0C0F088F0E49366700808BC
:1027830074019366187000A8F0A3A3700BD0F0D067
:0F279300E0D0E0D0E0022728A3A3D0F0D0E022CE
:1027A40074F51224BBEAFEEBFFEE2434F8EF340098
:1027B400F988088909EE2435F582EF3400F583E0C1
:1027C400F8EE2437F582EF3400F583E0F50AEC8562
:1027D4000AF0A4FCAAF0850AF0EDA42AFDE82CF87E
:1027E400E43DF97A257B0012236DEA850882850988
:1027F40083F05407F87401B800028004C333D8FC92
:10280400C0E0E0131313541FF8EE28F8EF3400F976
:10281400E8245DF582E93400F583D0E0F8E05860FF
:1028240008EE2434F582EF801EEE2436F582EF3470
:1028340000F583E0F5F0EA84A8F0EE28F8EF340020
:10284400F9E82438F582E93400F583E0F97F0402DD
:10285400256774F51224BBEAFEEBFFEE2434F582FF
:10286400EF3400F583E0C0E0EE2435F582EF340068
:10287400F583D0E0F08E828F83A3A3A3A3A3A3A3A5
:10288400C082C0838E828F83A3A3A3A3A3E0F8A3F3
:10289400E0F9D083D082E0C398F508A3E099F50964
:1028A400EE2480F582EF3400F583E064017069EE74
:1028B4002481F582EF3400F583E0F8A3E0F98E82F9
:1028C4008F83A3A3A3A3A3A3A3E0FCA3E0FD8E8211
:1028D4008F83A3A3A3A3A3E0FAA3E0FBC3EA9CEB27
:1028E4009D5027C3EC98ED99402EC3EA98EB99507C
:1028F400277CF07D07EEFAEFFB120E43EE2480F501
:1029040082EF3400F583E4F0800EC3EA98EB99403B
:10291400E0C3EC98ED9950D9EE2434F8EF3400F983
:10292400E8FCE9FDEE2435F582EF3400F583E0F8A8
:10293400EE2437F582EF3400F583E0F50AE50885E7
:102944000AF0A4F508AAF0850AF0E509A42AF50915
:10295400E82508F8E43509F97A257B0012236DEAA5
:102964008C828D83F05407F87401B800028004C38C
:1029740033D8FCC0E0E0131313541FF8EE28F8EF2B
:102984003400F9E8245DF582E93400F583D0E0F8F9
:10299400E0586008EE2434F582EF801EEE2436F50C
:1029A40082EF3400F583E0F5F0EA84A8F0EE28F82D
:1029B400EF3400F9E82438F582E93400F583E0F9CE
:1029C400122F6C022851C082C08385188285198316
:1029D400E0F8A3E0F9C3EA9CEB9D5012C3EC98ED38
:1029E400994019C3EA98EB99501279018010C3EA0F
:1029F40098EB9940F5C3EC98ED9950EE7900D083AB
:102A0400D08222EAC39CFAEB9DFB220085218785B4
:102A140022C622C0E0C0D0E8C0E0E9C0E0EAC0E0DD
:102A2400EBC0E0ECC0E0EDC0E0C008C009C00AC0E3
:102A34000BC082C083C0F0759B00906182E0A2E667
:102A44004003022AF5E591A2E64003022AF57591B6
:102A5400BF9004A7E064057008120FDB120FE78033
:102A640003120FE175210012104DE99004A8F079CA
:102A74000012102F120D6B7A017B009004A6E0F96E
:102A8400121371907803E064426003022B3E9008B5
:102A94007CE014F06003022B3EC2AF122AA200783D
:102AA4002AD0E0F618D0E0F6E59F5407F9700590B7
:102AB4008B298003908B2D78081222C8E9C4C0E0CA
:102AC4007829E65508F50808E65509F509740B78E0
:102AD400081223D6D0E02508F8906270E0A2E740FF
:102AE400F8E8C333906272F0906270E0D2E0F08054
:102AF40049E0A2E55024E591A2E5501E7591DF90CE
:102B040004A7E0640D70139004C9E004F064287015
:102B140002E4F07A00E0F91210E3906181E0A2E3AC
:102B24005009E5E9A2E3500375E9F7A3E0A2E750F1
:102B340009E591A2E7500375917FD0F0D083D0824C
:102B4400D00BD00AD009D008D0E0FDD0E0FCD0E012
:102B5400FBD0E0FAD0E0F9D0E0F8D0D0D0E032C039
:102B6400E0C0D0C082C083906183E0A2E05009E558
:102B7400BFA2E0500375BFFEE0A2E15009E5BFA289
:102B8400E1500375BFFDE0A2E25009E5BFA2E250A7
:102B94000375BFFBE0A2E35009E5BFA2E350037550
:102BA400BFF7E0A2E45009E5BFA2E4500375BFEF0C
:102BB400E0A2E55009E5BFA2E5500375BFDFE0A23E
:102BC400E65009E5BFA2E6500375BFBFD083D082AB
:102BD4008088C0E0C0D0E8C0E0E9C0E0EAC0E0EB33
:102BE400C0E0ECC0E0EDC0E0C0F0E5A7A2E6500F05
:102BF400E5A1A2E6500953A7BF75A1BF122C3BE57E
:102C0400A7A2E5500CE5A1A2E5500653A7DF75A1E4
:102C1400DFE5A7A2E15009E5A1A2E1500375A1FDFA
:102C2400E5A7A2E2500CE5A1A2E2500653A7FB756A
:102C3400A1FBD0F0022B4C74F81224BB7521019037
:102C440004A7E064067015120F758A828B83A3A310
:102C5400A3A3A3A3E0FAA3E0FB120FC9A2AFE4333A
:102C6400FED2AF9004ADE0640170187A207B00902E
:102C740004A6E0F91213F57A207B009004A6E0F98B
:102C8400121377906182E0D2E6F090087BE0602135
:102C940085C62280169004ACE064017008E5C65431
:102CA400F84405F5C653BEFC122A10740165216070
:102CB400E4EEA2E092AF7F01022567008E238F2409
:102CC400858228858327851882851983E0CEA3E031
:102CD400CF852882852783EBC9EAC8EDCBECCA757A
:102CE400F010C3E833C8E933C9EA33CAEB33CBC3C2
:102CF400EA9EF526EB9FF525B35004AB25AA26ECF6
:102D040033CCED33CDD5F0DAAE23AF242274F112F7
:102D140024BB8A088B098C0A8D0B740F1224437808
:102D24000C1222C8908AF5780812228F908AF578BE
:102D34000C12228F7808790C1218BC501578087977
:102D44000C12223C908B6178081218DC4015790132
:102D54008013780C790812223C908B61780C12183D
:102D6400DC40EB79007F0802256774ED1224BB8AEE
:102D7400088B098C0A8D0B7413122443780C1222CD
:102D8400C8908AF5780812228F908AF5780C12225E
:102D94008F780C79081218BC40117808790C12222B
:102DA4003CAA08AB09AC0AAD0B8022751000751162
:102DB400007512007513017810790C12223C7810FA
:102DC4007908122203AA10AB11AC12AD137F0C02C6
:102DD4002567908AF578081222C88A828B8378083E
:102DE4001222A27F0402256774F51224BB8C828D03
:102DF4008378081222C88A828B837808122268EAB0
:102E04002404F8EB3400F98C828D83A3A3A3A3E0FC
:102E1400FCA3E0FD88828983C3E09CF0A3E09DF0DD
:102E240088828983C3E09420A3E0944E4022908B4F
:102E34003178081222C88A828B8378081222298A60
:102E4400828B83A3A3A3A3E02420F0A3E0344EF059
:102E5400808074F51224BBE9FE900807E0FAA3E031
:102E6400FBEEC333F8E433F9747528F582748639BC
:102E7400F583E02AF508A3E03BF5097808122662F9
:102E8400908B351222E6122CC0740212240E8A088A
:102E94008B098C0A8D0B741078081221CBAA08AB0D
:102EA400097F0402256774F11224BB8A0C8B0D8CF4
:102EB4000E8D0F740F122443E0FAA3E0FB74111279
:102EC4002443E0F508A3E0F5097413122443E0FE5B
:102ED400A3E0FF7808122662EA2401F508EB340027
:102EE400F509E4F50AF50B780C79081220C7908BE4
:102EF4006978081222C8780C79081220C7AA0CAB8A
:102F04000DAC0EAD0F122CC0740212240E8B09EA04
:102F1400450960047A0180027A00EC2AFCED340051
:102F2400FDECF8EDF97A717B0212236D88088909AA
:102F3400E4F50AF50B8E828F8378081222D7ECF819
:102F4400EDF97A717B0212236D8A088B0974057876
:102F5400081223E58E828F83A3A3A3A3E508F0A31D
:102F6400E509F07F08022567C082C083E99060000C
:102F7400F0D083D08222C0E074F21225A7A2AFE47D
:102F840033FED2AFC2C0E5D1A2E4500653D1EF1252
:102F9400164DEEA2E092AF7F01022606C0E074F265
:102FA4001225A7A2AFE433FED2AFE589A2E1500314
:102FB40012159F758900C2C5EEA2E092AF7F01028F
:102FC4002606C0E074F21225A7A2AFE433FED2AF06
:102FD400E58BA2E0500312159F758B00C2E880D8E0
:102FE400C0E0C0D0E8C0E0E5A8D2AFC2C7A2E79273
:102FF400AFD0E0F8D0D0D0E032C0E0C0D0E8C0E03C
:10300400E9C0E0C008C009C082C083A2AFE433F9BC
:10301400D2AF9010FFE0F8A3E0687008539AFBA3C6
:1030240074018026C2E99010FFE0F50874012508B8
:10303400F0747F2508F58274103400F583E0F5C13F
:103044009010FFE0C394804002E4F0E9A2E092AF64
:10305400D083D082D009D008D0E0F9D0E0F8D0D025
:03306400D0E03287
:10306800FFFFFFFFFFFFFFFFC082C08390619074E6
:1030780004F0A37448F0A37402F09061807440F0E7
:103088009061BC7403F09061877419F09062657464
:103098001BF090619C740DF090619A7433F0A374E6
:1030A80055F09061A0743AF0900879E064017009D5
:1030B800C2919004AB746780059004AB7461F09082
:1030C800306EE493906186F0903068E493F4602762
:1030D800E493540FF8906185E0686012E5C6548067
:1030E8004449F5C6E59E547F644970F8E8F053C634
:1030F80080E59E547F70FA79051210C5023A65C0C2
:1031080082C083E5A8F853A87E906181E4F0A3F01B
:10311800A3F0C2BA539AFEC289759B00C2C275E970
:103128000075910075BF0075A91175B90590618189
:10313800F0A374C0F0A3E4F0D2BA439A01748058A3
:1031480042A8023A65C082C08374F81223F890043A
:10315800A9E0F8A3E0F9E849700302327B9004A9DA
:10316800E0544060237908851882851983AA82ABC8
:1031780083120EB5851882851983AA82AB83120A39
:10318800DD9004A9E054BFF0E054806010790C7A17
:103198009D7B08120EB59004A9E0547FF0E0A2E0F0
:1031A800503190619A7433F0A37455F09061A07413
:1031B8003AF0900879E064017009C2919004AB7408
:1031C8006780059004AB7461F0120AE39004A9E0EB
:1031D80054FEF0E05402603190619A743FF0A37499
:1031E8005AF09061A0747FF0900879E0640170094A
:1031F800D2919004AB747180059004AB746AF0129C
:103208000AE39004A9E054FDF0E054046013903000
:103218006CE493906186F0120AE99004A9E054FBEB
:10322800F0E05408601390306DE493906186F012DA
:103238000AE99004A9E054F7F0E0541060139030C4
:103248006EE493906186F0120AE99004A9E054EFC5
:10325800F0E05420600A120AE99004A9E054DFF073
:10326800A3E05401600D120D7D120AEF9004AAE04C
:1032780054FEF0740812240E023A65C082C083E935
:10328800600814600A14600C801390306C800890F9
:10329800306D800390306EE493906186F0023A6559
:1032A80074EC12244F74F41223F88518828519835C
:1032B800AC82AD8375838B758219740412230B90CD
:1032C800306C93F46003023435907808E0C39402BC
:1032D80050030234157404122443AC82AD83758301
:1032E800897582DA740812230B85188285198385FB
:1032F80082128583137404122443AC82AD83750E45
:10330800FF750FFF7FFF7E00750C48750D788015DF
:1033180074086E70030233A874096E70030233A830
:10332800740A6E607B850C82850D8378081222C82A
:103338008C828D83A909E50AC9F888107418780861
:103348001221CBE5104508F8C3E098A3E099850C55
:1033580082850D8378081222C840188C828D837468
:103368001878081221CBE5104508F8E0C398F8A3AF
:10337800E0801C741878081221CBE5104508FAE99A
:10338800FB8C828D83E0F8A3E0F9EAC398F8EB9907
:10339800F9C3E8950EE9950F5006880E890FEEFFE0
:1033A8000EE50C2404F50CE50D3400F50DEEC39480
:1033B80013500302331874FF650E700474FF650F11
:1033C80060238F08740278081223E574482508F5ED
:1033D8008274783509F58378081222C885128285A7
:1033E8001383E508F0EC24020C0CED3400FD851283
:1033F80082851383A3858212858313740C12244358
:10340800E5826C7003E5836D60030233067508017D
:1034180075090078081226627402122443AC82AD42
:10342800837A1B7B0C12157B740212240E740C1207
:10343800240E7F0C022521C082C0839061AE74687F
:10344800F0A3746AF090624574FBF0A304F053F49F
:10345800FD43FE029008797401F09061A0E0643A9F
:1034680090619A70237433F0A37455F09061A0743E
:103478003AF0740164017009C2919004AB746780DA
:10348800289004AB74618021743FF0A3745AF090C3
:1034980061A0747FF0740164017009D2919004AB4B
:1034A800747180059004AB746A0237FD7F040225AD
:1034B80021C082C083900857E06401701590085DB0
:1034C800E064016009E0700AA3E064017004790C0B
:1034D800802090086EE064017008900874E0640130
:1034E80060EC900801E064017006900806E070DE68
:1034F8007900023A65C082C08375E1F1900804E062
:1035080060551460081460591460518059120D8F69
:103518009007FAE0F97AFB7B07121011908B0D12D5
:1035280022E612105F908AED1222E612101D900812
:1035380005E0F912102979011210B99007F8E02472
:1035480016F8A3E03400F98882898374BFF0A37465
:103558000DF07900023A65120D9580B4120D9B802A
:10356800AF120DA180AA791280EA74F412244F7563
:10357800D90D9007E9E0A2E0E4331313F89007FAB5
:10358800E0C4333354C0484401F5D978F879078842
:10359800828983A3A3A3E0F5D988828983A3A8821B
:1035A800A983E864FE7003E9640770E378E97907A2
:1035B80088828983A3E0F5D988828983A3A882A910
:1035C80083E864EF7003E9640770E575E195900797
:1035D800E9E0F97AEA7B07121017901413743BF0AC
:1035E800A3740DF0A374FDF0A3740EF0A374FDF0A2
:1035F800A3740EF0A374FDF0A3740EF0A37441F04D
:10360800A3740DF0A374FDF0A3740EF0A37459F025
:10361800A3740DF090142174FDF0A3740EF0A3743C
:10362800FDF0A3740EF0A374FDF0A3740EF0A37460
:10363800FDF0A3740EF0A374FDF0A3740EF0A37450
:10364800FDF0A3740EF09007F8E0F8A3E0F5838886
:1036580082A3A378081222C8908B1D78081222161C
:10366800908AF5780812228F9007F8E0240EF8A3C4
:10367800E03400F98882898378081222D79007F805
:10368800E02414F8A3E03400F9888289837413F0E5
:103698009004A77402F00234B4C082C08390080A70
:1036A800E02407F5D99007FAE0C4333354C0F5D9BC
:1036B80078F8790788828983A3A3A3E0F5D988825B
:1036C8008983A3A882A983E864FE7003E96407706C
:1036D800E390080AE0601F78F87907FAE82413F500
:1036E80082E93400F583E0F5D988828983A3A8822A
:1036F800A9831AEA70E690082AE02407F5D990070A
:10370800FAE0C4333354C04404F5D978F87907880B
:10371800828983A3A3A3E0F5D988828983A3A88299
:10372800A983E864FE7003E9640770E390082AE05F
:10373800601F78F87907FAE82433F582E93400F550
:1037480083E0F5D988828983A3A882A9831AEA70BD
:10375800E675E1959014137447F0A3740DF0A37403
:10376800FDF0A3740EF0A374FDF0A3740EF0A3741F
:10377800FDF0A3740EF0A37441F0A3740DF0A374CC
:10378800FDF0A3740EF0A37459F0A3740DF0901417
:103798002174FDF0A3740EF0A374FDF0A3740EF071
:1037A800A374FDF0A3740EF0A374FDF0A3740EF0DF
:1037B800A374FDF0A3740EF0A374FDF0A3740EF0CF
:1037C800908B311222E69007F8E0240EF8A3E0343B
:1037D80000F9888289831222F29007F8E02414F80D
:1037E800A3E03400F9888289837412F09004A774E6
:1037F800018002F0A3F0023A65C082C08390080AF3
:10380800E02407F5D99007FAE0C4333354C04402E2
:10381800F5D978F8790788828983A3A3A3E0F5D935
:1038280088828983A3A882A983E864FE7003E96477
:103838000770E390080AE0601F78F87907FAE8242F
:1038480013F582E93400F583E0F5D988828983A3EA
:10385800A882A9831AEA70E675E195901413745347
:10386800F0A3740DF0A37453F0A3740DF0A3745374
:10387800F0A3740DF0A37453F0A3740DF0A3745364
:10388800F0A3740DF0A37453F0A3740DF0A374594E
:10389800F0A3740DF090142174FDF0A3740EF0A33E
:1038A80074FDF0A3740EF0A374FDF0A3740EF0A3DE
:1038B80074FDF0A3740EF0A374FDF0A3740EF0A3CE
:1038C80074FDF0A3740EF0908B311222E69007F885
:1038D800E0240EF8A3E03400F9888289831222F2EA
:1038E8009007F8E02414F8A3E03400F9888289836B
:1038F8007414F09004A774040237FDC082C083904A
:10390800080AE02407F5D99007FAE0C4333354C015
:103918004406F5D978F8790788828983A3A3A3E0B8
:10392800F5D988828983A3A882A983E864FE7003F5
:10393800E9640770E390080AE0601F78F87907FAED
:10394800E82413F582E93400F583E0F5D988828903
:1039580083A3A882A9831AEA70E690082AE02407BC
:10396800F5D99007FAE0C4333354C04404F5D97844
:10397800F8790788828983A3A3A3E0F5D988828987
:1039880083A3A882A983E864FE7003E9640770E34F
:1039980090082AE0601F78F87907FAE82433F5825E
:1039A800E93400F583E0F5D988828983A3A882A940
:1039B800831AEA70E675E195901413744DF0A374B8
:1039C8000DF0A374FDF0A3740EF0A374FDF0A374BE
:1039D8000EF0A374FDF0A3740EF0A374FDF0A374AD
:1039E8000EF0A374FDF0A3740EF0A37459F0A37441
:1039F8000DF090142174FDF0A3740EF0A374FDF083
:103A0800A3740EF0A374FDF0A3740EF0A374FDF07C
:103A1800A3740EF0A374FDF0A3740EF0A374FDF06C
:103A2800A3740EF0908B311222E69007F8E0240E72
:103A3800F8A3E03400F9888289831222F29007F80B
:103A4800E02414F8A3E03400F9888289837415F01F
:103A58009004A774030237FDE0F9122F6CD083D0CD
:103A680082020122C082C0839008617425F0900808
:103A78005F7401F0A3E4F07A01FB12103B90084D4B
:103A8800E02416F8A3E03400F98882898374CBF027
:103A9800A3740DF090085EE06401701690085DE074
:103AA800701079011210A112106B12109B7900127C
:103AB80010AD80A9C082C08374FA1223F89008560A
:103AC800E064017008120DA7900856E4F075E1F162
:103AD80090084DE02415F8A3E03400F98882898322
:103AE8007401F0900858E064017076908A97C0825B
:103AF800851882851983AC82AD8375838AD08274D8
:103B08000612230B75D90D90084FE0C4333354C007
:103B18004403F5D9784D790888828983A3A3A3E063
:103B2800F5D988828983A3A882A983E8645370039E
:103B3800E9640870E3851882851983A882A98388B7
:103B4800828983E0F5D9A3A882A983740612244345
:103B5800E582687003E5836970E575E19579018010
:103B6800027900121041901413742DF0A3740FF011
:103B7800A37433F0A3740FF0A3742DF0A3740FF0A3
:103B8800A3742DF0A3740FF0A374FDF0A3740EF0CA
:103B9800A374FDF0A3740EF0A37439F0A3740FF0AE
:103BA80090142174FDF0A3740EF0A374FDF0A374B7
:103BB8000EF0A374FDF0A3740EF0A374FDF0A374CB
:103BC8000EF0A374FDF0A3740EF0A374FDF0A374BB
:103BD8000EF090084FE0F97A507B08121011900807
:103BE80061E0F9122F6C7901121047908B0D1222A7
:103BF800E612105F908AED1222E612101D7900126B
:103C080010B990084DE02414F8A3E03400F9888234
:103C180089837416F09004A77405F00402327D7449
:103C2800F712244F8908A808E875F006A4C8AAF076
:103C38002AF974D728FE740439FF900866E0F97AE7
:103C4800677B08121011900874E0701A790012103E
:103C5800839007E9E0700B79007AEA7B0712101766
:103C68008009790180F3790112108375E1F175D922
:103C780023900866E0C4333354C04405F5D978640A
:103C8800790888828983A3A3A3E0F5D988828983E8
:103C9800A3A882A983E8646A7003E9640870E375DD
:103CA800D90075D90075D90075D90075D90075D9AD
:103CB80000EEF8EFF9E82404FAE93400FBE82422DE
:103CC800F582E93400F583E0F5D988828983A3A8D1
:103CD80082A983EA687002EB6970E2EEF8EFF9E80E
:103CE80024031AE93400FBE82426F582E93400F5B8
:103CF80083E0F5D988828983A3A882A983EA6870BA
:103D080002EB6970E2EE242BF582EF3400F583E0D4
:103D1800F5D9EEF8EFF9E824021AE93400FBE824B3
:103D28002CF582E93400F583E0F5D988828983A3EC
:103D3800A882A983EA687002EB6970E2EEF8EFF9ED
:103D4800E8242EF582E93400F583E0F5D9888289E4
:103D580083A3A882A983EA687002EB6970E2EEF88F
:103D6800EFF9E82430F582E93400F583E0F5D988E5
:103D7800828983A3A882A983EA687002EB6970E24A
:103D8800EEF8EFF9E82432F582E93400F583E0F53E
:103D9800D988828983A3A882A983EA687002EB691B
:103DA80070E2EEF8EFF9E824050A0A0AE93400FBA4
:103DB800E8245DF582E93400F583E0F5D988828945
:103DC80083A3A882A983EA687002EB6970E2EE24F3
:103DD80037F582EF3400F583E0541FF8EE242AF516
:103DE80082EF3400F583E0C43354E048F5D975E137
:103DF800959014137403F0A3740FF0A37409F0A33F
:103E0800740FF0A374FDF0A3740EF0A374FDF0A377
:103E1800740EF0A374FDF0A3740EF0A374FDF0A368
:103E2800740EF0A3740FF0A3740FF090142174FDB6
:103E3800F0A3740EF0A374FDF0A3740EF0A374FD48
:103E4800F0A3740EF0A374FDF0A3740EF0A374FD38
:103E5800F0A3740EF0A374FDF0A3740EF090087331
:103E6800E0F9122F6C908B0D1222E612105F908AE7
:103E7800ED1222E612101D90600DE4F07901121087
:103E8800B99004A7740602447C74EC12244F90087D
:103E980064E0F8A3E0F5838882A3A378101222C80F
:103EA800900875E0FAF875F006A4C8ACF02CF9741F
:103EB8000528F582740539F583E0FEA3E0FFEEC31B
:103EC80033FEEF33FF8E0CF50D750E00750F008570
:103ED800100885110985120A85130B908B21780823
:103EE800122216780812265E851008851109851297
:103EF8000A85130B7808790C1222037810790C12B2
:103F08002147E4F50EF50F7808790C12223C8A0C4B
:103F1800750D007403780C1223E57808790C1222C9
:103F280003908AF5780812228FAA08AB09AC0AAD6B
:103F38000B122D6E740412240E8A088B09A808A986
:103F480009C3EE98EF995006E82EF8E93FF9E89092
:103F5800600EF0E9A3F0EEA3F0EFA3F090600D740B
:103F6800C1F002343AC082C0839007F8E0F8A3E0B9
:103F7800F5838882A3A3A3A3A3A3E40237FB74F762
:103F880012244F9004D5E0F875F006A4C8AAF02AC8
:103F9800F974D728F8740439F9E82405FAE93400E3
:103FA800FB8A828B83E0FCA3E0FD88828983A3A33C
:103FB800A3A3A3A3A3A3A3ECF0A3EDF08882898312
:103FC800A3A3A3A3A3A3A3E024FFF8A3E034FFF9CA
:103FD8008A828B83E8F0A3E902447CC082C0839084
:103FE800084DE0F8A3E0F5838882A3A3A3A3A3A3C5
:103FF800E4F0A3F0900861023A60C082C0839008A0
:1040080064E0F8A3E0F5838882A3A3A3A3A3A3E4B1
:10401800F0A3F0900873023A6002012274F61224A9
:104028004F9061D0E0F87480C398FCEA2483F5824D
:10403800EB3400F583E06004780480027800E8241B
:104048000EF8ECC39850030241A57E0C90087DE45D
:10405800F0EA2477F582EB3400F583E090087EF0EF
:10406800EA2478FCEB3400FD787F79087F028C82A3
:104078008D83E088828983F08C828D83A3AC82ADA6
:104088008388828983A3A882A9831FEF70E0EA242A
:104098007AFCEB3400FD7F028C828D83E088828974
:1040A80083F08C828D83A3AC82AD8388828983A3BD
:1040B800A882A9831FEF70E0EA247CFCEB3400FDA2
:1040C8007F028C828D83E088828983F08C828D8345
:1040D800A3AC82AD8388828983A3A882A9831FEFBA
:1040E80070E0EA247EFCEB3400FD7F028C828D8335
:1040F800E088828983F08C828D83A3AC82AD83882B
:10410800828983A3A882A9831FEF70E0EA2475FC43
:10411800EB3400FD8A828B83A3A3A3A3A3E0F50855
:10412800A3E0F5098C828D83E02508F0A3E035092A
:10413800F07F028C828D83E088828983F08C828D67
:1041480083A3AC82AD8388828983A3A882A9831FB5
:10415800EF70E0EA2483F582EB3400F583E0601920
:1041680075087D75090878081226627C0C79031297
:104178000EF1740212240E7E1074012EF5D975D931
:104188000375827D758308EEFFE0F5D9A31FEF70F4
:10419800F875E195790412106579018002790002B9
:1041A800490274F612244F9061D0E0F87480C398E5
:1041B800FCEA2483F582EB3400F583E0600478049C
:1041C80080027800E8240AF8ECC398500302429A67
:1041D80075080890087D7401F07CF07D07787E7979
:1041E800087E058C828D83E088828983F08C828D9D
:1041F80083A3AC82AD8388828983A3A882A9831E06
:10420800EE70E0EA2481FCEB3400FD8A828B83A304
:10421800A3A3A3A3E0FEA3E0FF8C828D83E02EF08E
:10422800A3E03FF07E028C828D83E088828983F050
:104238008C828D83A3AC82AD8388828983A3A88274
:10424800A9831EEE70E0EA2483F582EB3400F5833F
:10425800E0601A75087D75090878081226627C08DE
:104268007903120EF1740212240E75080C740125DC
:1042780008F5D975D90375827D758308AE08E0F510
:10428800D9A31EEE70F875E19579041210657901CD
:104298008002790002490274F712244FEAFEEBFF0C
:1042A8009061D0E0600302439675D91875D90375FB
:1042B800D903EEF8EFF9E82408FAE93400FBE8241A
:1042C8009CF582E93400F583E0F5D988828983A3D7
:1042D800A882A983EA687002EB6970E2EEF8EFF948
:1042E800E82402FAE93400FBE824A4F582E9340062
:1042F800F583E0F5D988828983A3A882A983EA682F
:104308007002EB6970E2EE2494F582EF3400F583D5
:10431800E5822408F8E5833400F9E0F5D9A3E865D7
:10432800827003E9658370F2EE2488F582EF340029
:10433800F583E5822404F8E5833400F9E0F5D9A390
:10434800E865827003E9658370F275E1957908EE96
:104358002494FAEF3400FB120EA97904EE2488FAAB
:10436800EF3400FB120EA97904121065EE2470F5E3
:1043780082EF3400F583E0F8A3E0F9EE2472F582C9
:10438800EF3400F583E8F0A3E9F0790180027900C1
:1043980002447D74F712244FEAFEEBFF9061D0E0EF
:1043A800600302447875D90E75D90375D904EE24D3
:1043B8008CF582EF3400F583E5822408F8E5833430
:1043C80000F9E0F5D9A3E865827003E9658370F226
:1043D800EE2484F582EF3400F583E5822404F8E5C1
:1043E800833400F9E0F5D9A3E865827003E96583B1
:1043F80070F275E1957908EE248CFAEF3400FB121F
:104408000EA97904EE2484FAEF3400FB120EA97C7D
:1044180000EEF8EFF9ECFAC3E49AFA95E0FBEE2A1D
:10442800FAEF3BFBEA248BF582EB3400F583E0C01E
:10443800E0E824ABF582E93400F583D0E0F00C889D
:10444800828983A3A882A983ECC3940840C7EE2479
:1044580070F582EF3400F583E0F8A3E0F9EE2472FA
:10446800F582EF3400F583E8F0A3E9F079018002E2
:1044780079008001F07F01022521C082C08375D9AF
:104488000275D90375D90575E195EA2470F582EBB3
:104498003400F583E0F8A3E0F9EA2472F582EB34FE
:1044A80000F583E8F0A3E9F07901023A6574F612A1
:1044B800244FEAFEEBFF90087D7406F075087D75C1
:1044C800090878081226627C017903120EF1740239
:1044D80012240E75D90675D90375827D758308E097
:1044E800F5D9A3E58264827004E583640870F075E9
:1044F800E1959004A7E06408701EEE2470F582EF41
:104508003400F583E0F8A3E0F9EE2472F582EF3485
:1045180000F583E8F0A3E9F0790102490274F61284
:10452800244FEAFEEBFF9061D0E0705E90087D7446
:104538000AF075087D75090878081226627C0179E9
:1045480003120EF1740212240E75D90675D903757B
:10455800827D758308E0F5D9A3E58264827004E55D
:1045680083640870F075E195EE2470F582EF3400ED
:10457800F583E0F8A3E0F9EE2472F582EF3400F554
:1045880083E8F0A3E9F07901800279000249027416
:10459800F612244FEAFEEBFF9061D0E070667801D6
:1045A80090087D740BF09004A7E0640770197508F3
:1045B8007D75090878081226627C017903120EF1CC
:1045C800740212240E7805740128F5D975D903757B
:1045D800827D758308E8FAE0F5D9A31AEA70F875C0
:1045E800E195EE2470F582EF3400F583E0F8A3E05E
:1045F800F9EE2472F582EF3400F583E8F0A3E9F0D0
:1046080079018002790002490274F712244FEAFE08
:10461800EBFF75D90375D90375D90DEE24DEF58244
:10462800EF3400F583E0F5D975E19579041210654A
:10463800EE2470F582EF3400F583E0F8A3E0F9EE9C
:104648002472F582EF3400F583E8F0A3E9F07901EC
:1046580002447D74F612244FEAFEEBFF9061D0E02D
:10466800F87480C398FAEE2483F582EF3400F5835A
:10467800E06004780480027800E8240BF8EAC39824
:1046880050030247317D0990087D7408F0EE24E557
:10469800F8EF3400F97A7E7B087C0888828983E009
:1046A8008A828B83F088828983A3A882A9838A82DD
:1046B8008B83A3AA82AB831CEC70E0EE2483F58283
:1046C800EF3400F583E0601D75087D7509087808EA
:1046D8001226627C097903EEFAEFFB120EF17402DE
:1046E80012240E7D0D74012DF5D975D90375827DBF
:1046F8007583088D08E0F5D9A31508E50870F675E7
:10470800E1957904121065EE2470F582EF3400F516
:1047180083E0F8A3E0F9EE2472F582EF3400F58324
:10472800E8F0A3E9F079018002790002490274F601
:1047380012244FEAFEEBFF9061D0E0F87480C39832
:10474800FAEE2483F582EF3400F583E06004780400
:1047580080027800E8240BF8EAC39850030247FB6C
:104768007D0990087DEDF0EE24E5F8EF3400F97A44
:104778007E7B087C0888828983E08A828B83F08824
:10478800828983A3A882A9838A828B83A3AA82AB06
:10479800831CEC70E0EE2483F582EF3400F583E0AF
:1047A800601D75087D75090878081226627C0979EC
:1047B80003EEFAEFFB120EF1740212240E7D0D7453
:1047C800012DF5D975D90375827D7583088D08E0AB
:1047D800F5D9A31508E50870F675E1957904121066
:1047E80065EE241DF582EF3400F583E4F0A3F0793B
:1047F800018002790002490274F612244FEAFEEBA6
:10480800FF9061D0E0F87480C398FAEE2483F582B3
:10481800EF3400F583E06004780480027800E8242F
:1048280008F8EAC39850030249007D0690087D7491
:104838000CF09004C4E090087EF07AC57B04787F81
:1048480079087C028A828B83E088828983F08A8255
:104858008B83A3AA82AB8388828983A3A882A98336
:104868001CEC70E07AC77B047C028A828B83E08828
:10487800828983F08A828B83A3AA82AB8388828908
:1048880083A3A882A9831CEC70E0EE2483F582EF51
:104898003400F583E0601D75087D750908780812F5
:1048A80026627C067903EEFAEFFB120EF17402120F
:1048B800240E7D0A74012DF5D975D90375827D758D
:1048C80083088D08E0F5D9A31508E50870F675E1A9
:1048D800957904121065EE2470F582EF3400F583A3
:1048E800E0F8A3E0F9EE2472F582EF3400F583E8EE
:1048F800F0A3E9F07901800279007F020225217492
:10490800F612244FEAFEEBFF9061D0E0F87480C302
:1049180098FAEE2483F582EF3400F583E06004789A
:104928000480027800E82404F8EAC3985003024996
:10493800E1780290087DE8F0EE24F7F582EF340084
:10494800F583E090087EF0EE2483F582EF3400F5DD
:1049580083E0601B75087D75090878081226627C5B
:10496800027903EEFA120EF1740212240E7806741C
:104978000128F5D975D90375827D7583088808E003
:10498800F5D9A31508E50870F675E195EE2474F5D8
:1049980082EF3400F583E4F0EE2480F582EF3400F2
:1049A800F583E4F0EE241DF582EF3400F583E4F09E
:1049B800A3F07904121065EE240DF582EF3400F5AA
:1049C80083E0F8A3E0F9EE2472F582EF3400F58372
:1049D800E8F0A3E9F079018002790002490274F64F
:1049E80012244F9061D0E0F87480C398FCEA2483C5
:1049F800F582EB3400F583E06004780480027800E7
:104A0800E82404F8ECC398405B790290087D7407A9
:104A1800F0EA24F8F582EB3400F583E090087EF0A4
:104A2800EA2483F582EB3400F583E0601875087D8D
:104A380075090878081226627C0209120EF17402C0
:104A480012240E7906740129F5D975D90375827D6A
:104A5800758308E9F8E0F5D9A318E870F875E195C9
:104A680079018002790002490274F512244FE9FCA9
:104A7800A2AFE433F50AC2AF7D0080010DEA246FCE
:104A8800F582EB3400F583E0F8EDC398501A8D08F1
:104A9800EA2508F8EB3400F9E8246BF582E93400DC
:104AA800F583E06C70D68024EA246FF8EB3400F9C3
:104AB800E0FEEA2EFAEB3400FBEA246BF582EB34D5
:104AC80000F583ECF088828983E004F0E50AA2E02F
:104AD80092AF7F0302252174F612244FA2AFE4336C
:104AE800FDC2AFEA246FF582EB3400F583E014F0E1
:104AF8007C0060368C08EA2508F8EB3400F9E824D5
:104B08006CF582E93400F583E0C0E0E8246BF582B7
:104B1800E93400F583D0E0F00CEA246FF582EB3439
:104B280000F583E0F8ECC39840CAEA246EF582EBFE
:104B38003400F58374FFF0EA246AF582EB3400F55B
:104B480083E4F0EDA2E092AF024902C082C083E59F
:104B5800A8F8C2AFEA246BF582EB3400F583E9F0DC
:104B6800EA246AF582EB3400F583E4F0E8A2E792E0
:104B7800AF023A6574F312244FEAFEEBFFECFAED4C
:104B8800FB8A828B83A3A3A3A3E0541FF0EE2436F1
:104B9800F582EF3400F583E4F0F50AEEFCEFFD8AC8
:104BA800828B83E0C0E0EC245DF582ED3400F58370
:104BB800D0E0F0750B00E50A33333354F8F50C8A6E
:104BC800828B83E0F508750900E50B78081223C687
:104BD800E508A2E0502FEE2436F8EF3400F9888279
:104BE8008983E0F508EE2508F508EF3400F509E5B6
:104BF800082438F582E5093400F583E50CF088824D
:104C08008983E004F0050B050CE50BC3940840AF5D
:104C1800050A8A828B83A3AA82AB838C828D83A3A5
:104C2800AC82AD83E50AC394055003024BA77F0508
:104C380002252174F712244F9004D3E0640370070F
:104C48007A007B0002447D7B0078D37904888289CE
:104C580083A3A3A3A3A3A3E06003024F35EBF875D6
:104C6800F006A4C8AAF02AF974D728F8740439F908
:104C780088828983A3A37401F088828983A3A3A36C
:104C8800E4F0EB88828983A3A3A3A3F0E82462F568
:104C980082E93400F5837401F0E82465F582E9348B
:104CA80000F583E4F0A3F0E82468F582E93400F520
:104CB800837401F088828983A3A3A3A3A3E4F0A348
:104CC800F088828983A3A3A3A3A3A3A3F0A3F0E8F6
:104CD800240FF582E93400F5837401F0E82435F5F2
:104CE80082E93400F583E4F0908B651222E6E8242B
:104CF80018F582E93400F5831222F2E8241CF582C3
:104D0800E93400F583E4F0E8241DF582E93400F580
:104D180083E4F0A3F0E82480F582E93400F583E425
:104D2800F0E82474F582E93400F583E4F0E82469B6
:104D3800F582E93400F5837480F0E8246AF582E9A5
:104D48003400F583E4F0E8246FF582E93400F58354
:104D5800E4F0E82467F582E93400F583E4F0E82418
:104D6800EDF582E93400F583E4F0E824EEF582E914
:104D78003400F583E4F0E824EFF582E93400F583A4
:104D8800E4F0E824F0F582E93400F583E4F0E8245F
:104D9800F1F582E93400F583E4F0A3F0E824F3F5B3
:104DA80082E93400F583E4F0A3F0E824F6F582E91B
:104DB8003400F583E4F0E82483F582E93400F583D0
:104DC800E4F0E824D3F582E93400F583E4F0E8243C
:104DD800D4F582E93400F583E4F0908B651222E67D
:104DE800E824D5F582E93400F5831222F2908B6528
:104DF8001222E6E824D9F582E93400F5831222F27A
:104E0800E824DFF582E93400F583E4F0E824E1F5ED
:104E180082E93400F583E4F0E824DDF582E9340022
:104E2800F583E4F0E824E2F582E93400F583E4F060
:104E3800E824E3F582E93400F583E4F0E824F9F5A1
:104E480082E93400F583E4F0A3F0E824FBF582E975
:104E58003400F583E4F0A3F0E824FDF582E934009A
:104E6800F583E4F0A3F0E824FFF582E93400F58344
:104E7800E4F0A3F0E8FAE9FBEA2404FCEB3400FDD3
:104E8800EA246BF582EB3400F58374FFF08A828B99
:104E980083A3AA82AB83EC6A7002ED6B70E2E8FA36
:104EA800E9FB7CF07D078C828D83E0C0E0EA245D1D
:104EB800F582EB3400F583D0E0F08C828D83A3ACCF
:104EC80082AD838A828B83A3AA82AB83EC64F5705C
:104ED80003ED640770D0E8FAE9FB7CBA7D048C82A4
:104EE8008D83A3E0C0E0EA24E5F582EB3400F58386
:104EF800D0E0F08C828D83A3AC82AD838A828B83D1
:104F0800A3AA82AB83EC64C27003ED640470CF90F3
:104F180004D3E004F06401700D88828983A3A3A3FD
:104F2800A3E09004D5F0E8FAE9FB024C4C0BE82426
:104F380006F8E93401F9EBC394034003024C480234
:104F48004C55C082C0838A828B83A3A3A3E0600FE1
:104F58008A828B83A3A3A3E4F09004D4E014F09096
:104F680004D3E014F070069004D574FFF08A828BA5
:104F780083A3A3E4F09007F5E0700D9004D4E064F7
:104F8800017005790012102F023A65C082C083783B
:104F9800D3790488828983A3A3A3A3A3A3A3E4F05A
:104FA80088828983A3A3A3A3A3A3F0E82406F8E92E
:104FB8003401F9E864E57003E9640770D69004D316
:104FC800E4F0A3F0A374FFF075E1F1023A6574F31D
:104FD80012244F750800750900750C00750AD775FD
:104FE8000B04AE0AAF0B8E828F83A3A3A3E0603FAE
:104FF800E5084509700AEEF8EFF988088909802F55
:10500800850882850983E0F8A3E0F5838882A3A355
:105018001226758E828F83E0F8A3E0F5838882A339
:10502800A31222E6122D11740412240EE960C7059A
:105038000CEE2406F50AEF3401F50BE50CC39403D6
:1050480040A0850882850983A3A3A3A3E0F9024CA5
:105058003674F612244F78FF79FF7508007ED77FE3
:1050680004EEFCEFFD8C828D83A3A3A3E06064743F
:10507800FF68700374FF697025EC2474F582ED34C1
:1050880000F583E064017011EC247AF582ED3400B8
:10509800F583E0F8A3E0F9803AEC242E80EDEC24C7
:1050A80074F582ED3400F583E064017014EC247A21
:1050B800F582ED3400F583C3E098A3E0995014809D
:1050C800C7EC242EF582ED3400F583C3E098A3E005
:1050D8009940C60508EE2406FEEF3401FFE508C333
:1050E80094035003025069C3EA98EB994004E8FA24
:1050F800E9FB02490274F612244FEAFEEBFF8E82A6
:105108008F83A3A3A3E0600F8E828F83A3A3A3E45E
:10511800F09004D4E014F09004D3E014F0700690FA
:1051280004D574FFF08E828F83A3A3E4F09007F573
:10513800E0700D9004D4E064017005790012102F1E
:10514800EE2465F582EF3400F583E0F8A3E0F9E892
:10515800496029EE2465F8EF3400F9880889098840
:1051680082F583E0FCA3E0FD9004D5E0FA7B001211
:105178000B13850882850983E4F0A3F0EEFAEFFBB0
:10518800120F6F02490274F712244FEAFEEBFF8EEA
:10519800828F83A3A3A3A3E0FA7B00120B5BEEFA32
:1051A800EFFB120E67120F5102447DC082C0837C50
:1051B800007AD77B04EAF8EBF988828983A3A3A352
:1051C800E0601EE8246FF582E93400F583E06011A1
:1051D800E8246BF582E93400F583E07004790180F6
:1051E800110CEA2406FAEB3401FBECC3940340C526
:1051F8007900023A65C082C08378BA7904888289C6
:1052080083A3E4F088828983A3A882A983E864C27F
:105218007003E9640470E69004BB0237F7C082C0EB
:105228008374FC1223F8908B651222E68518828518
:1052380019831222F2120EAFE9851882851983F0BC
:10524800120EAF7401122443E9F0120EAF74021269
:105258002443E9F08518828519831222E674040232
:10526800327D74F612244FEAFEEBFFEC2403F8EDCE
:105278003400F988088909EC2407F8ED3400F9E8C6
:10528800FCE9FD8C828D83E0F8A3E0F9850882852E
:105298000983E0FAA3E0FB12236DEE240DF582EFFB
:1052A8003400F583E8F0A3E9F08C828D83E0F8A35D
:1052B800E0F9850882850983E0FAA3E0FB12236DF3
:1052C8008B09EA45096013EE240DF582EF3400F5E9
:1052D80083E02401F0A3E03400F002490274F612DE
:1052E800244FEAFEEBFFEE242EF582EF3400F5831F
:1052F800E0FCA3E0FD780079FAECFAEDFB12236DEF
:10530800EE2470F582EF3400F583E8F0A3E9F07835
:105318000079FAECFAEDFB12236D8B09EA45096076
:1053280013EE2470F582EF3400F583E02401F0A336
:10533800E03400F002490274F012244FEAFEEBFF59
:10534800741012244378081222C8120FF38A0C8BA7
:105358000D8C0E8D0F908B25780C122216908AF5E5
:10536800780C12228F780C12265E8E828F83E0F8DA
:10537800A3E0F5838882A3A31222E6122D117404F8
:1053880012240EE9600302548C8E828F83E024027B
:10539800F8A3E03400F9E8FAE9FB8A828B837808FD
:1053A800122229908AF578081222C88A828B83787B
:1053B800081222A2EE240BF582EF3400F583C08296
:1053C800C0838E828F83A3A3A3A3A3E02401F8A3A1
:1053D800E03400F9D083D082E0687003A3E06970FC
:1053E80005790102548E8E828F83A3A3A3A3A3A35E
:1053F800A3E02401F0A3E03400F0EE2474F582EF7A
:105408003400F583E064017036EE2475F582EF34DC
:1054180000F583E0F8A3E0F98E828F83A3A3A3A30A
:10542800A3A3A3E0687003A3E0697013EE2475F5E5
:1054380082EF3400F583E02401F0A3E03400F0EEBD
:105448002480F582EF3400F583E064017036EE24A1
:1054580081F582EF3400F583E0F8A3E0F98E828FBE
:1054680083A3A3A3A3A3A3A3E0687003A3E0697025
:1054780013EE2481F582EF3400F583E02401F0A3D4
:10548800E03400F079007F0802252174F712244FD8
:105498009004D5E0F875F006A4C8AAF02AF974D7E4
:1054A80028FE740439FF8028EE2465F8EF3400F9EB
:1054B80088828983E0FCA3E0FD88828983E4F0A3E5
:1054C800F08E828F83A3A3A3A3E0FA7B00120B13B1
:1054D800EE2465F582EF3400F583E0F8A3E0F9E8FF
:1054E80049604FEE2464F582EF3400F583E0F50857
:1054F8007808122666EE2463F582EF3400F583E01F
:10550800F9EE2465F582EF3400F583E0FCA3E0FDB5
:10551800EEFAEFFB120E9D740112240EE96089EE7B
:105528002465F582EF3400F583E0F8A3E0F9E84953
:1055380070137C007D008E828F83A3A3A3A3E0FA5F
:105548007B00120B1302447D74F212244FEAFEEB27
:10555800FF890A740E122443E0FAEE2462F582EF02
:105568003400F583E06401600302561C9061D0E0CA
:10557800F87480C398F50CEE2483F582EF3400F5B7
:1055880083E060047804800278008908E928F8E458
:105598003400F9E824020808E93400F9E50C98E435
:1055A80099A2D265D0334068EA7005750B02800372
:1055B800750B01E0603975090078081226627A7D5A
:1055C8007B08120ED3740212240E75087D75090823
:1055D8007808122662AC0AA90BEEFAEFFB120EF15C
:1055E800740212240E7404250AF50A7C7D7D087461
:1055F80001250AF5D9850BD9E50A600D8C828D83C2
:10560800F8E0F5D9A318E870F875E19579008006F7
:105618007907800279FF7F06022521C082C083E9CD
:1056280060208C828D83E08A828B83F08C828D83CC
:10563800A3AC82AD838A828B83A3AA82AB8319E948
:1056480070E0ECFAEDFB023A6574F412244FE9902D
:1056580004A6F0120FFF907800E0C4540F540764BA
:10566800037004793F8002797F7508067509007810
:10567800081226627C947D047AEA7B0712157574F9
:105688000212240E900494E0F47049A3E0F47044EC
:10569800A3E0F4703FA3E0F4703AA3E0F47035A3FC
:1056A800E0F4703090780EE0900494F090780FE079
:1056B800900495F0907810E0900496F0907811E0BE
:1056C800900497F0907812E0900498F0907813E0A6
:1056D800900499F090049A74FFF0A3F0A3F0A3F05B
:1056E800A3F0A3F0900494E09004A0F0900495E057
:1056F8009004A1F0900496E09004A2F0900497E042
:105708009004A3F0900498E09004A4F0900499E029
:105718009004A5F09004C47406F0A3740DF0A3E4FB
:10572800F0A37432F0A37401F09007FB74FFF0A3A8
:10573800F0A3F0A3F0A3F0A3F09007FAE4F0900828
:1057480001F0A374A0F0A3E4F0A37403F0A374071A
:10575800F0A3E4F0A37428F0A3E4F0A304F0A3E416
:10576800F090082AF090085074FFF0A3F0A3F0A37B
:10577800F0A3F0A3F090084FE4F090085604F0A3CB
:10578800E4F0A3F0A37480F0A37402F0A37480F093
:10579800A37402F0A3E4F0A304F0A3F0A3E4F0A33D
:1057A8007425F0A3E4F0A3F090086774FFF0A3F069
:1057B800A3F0A3F0A3F0A3F0900866E4F090086DBE
:1057C80004F0A3E4F0A37480F0A37402F0A374803F
:1057D800F0A37402F0A37425F0A3E4F0A3F0A3747B
:1057E80005F090087774FFF0A3E4F0900879F09042
:1057F800087B04F0120D77120C8D120FBD79017A17
:105808007C7B08120EB590087CE075F01484E5F0F6
:1058180004F0790C7A9D7B08120EB5120ECD7A0031
:105828009004A6E0F91213C5907803E06442705E14
:1058380090087CE014F07056C2AF12584500782AE0
:10584800D0E0F618D0E0F6E59F5407F97005908B84
:10585800298003908B2D78081222C8E9C4C0E0780B
:1058680029E65508F50808E65509F509740B78087E
:105878001223D6D0E02508F8906270E0A2E740F83D
:10588800E8C333906272F0906270E0D2E0F0900466
:10589800D1E4F0A3F07A80FB9004A6E0F91213712A
:1058A8000268E574F612244FEAFEEBFFEEA2E05020
:1058B800489004A8E0C39480E0500FC333F8E43361
:1058C800F9741328F5827414800EF4C333F8E433A2
:1058D800F9742128F582741439F583E0F8A3E0F50A
:1058E80083888212244D7A009004A6E0F91213C529
:1058F800EE6401FAEFFB025B855408700302599BC2
:10590800900875E0F875F006A4C8AAF02AF974D7CB
:1059180028FA740439FB7508007808122666EA2408
:1059280032F582EB3400F583E0F508A3E0F509745D
:105938000478081223D67808122662EA2430F58201
:10594800EB3400F583122679EA242EF582EB340035
:10595800F583E0F508A3E0C313F509E50813F50896
:1059680078081226627508EA75090778081226620F
:105978009007E9E0FD7C008A828B83A3A3A3A3E0C0
:10598800FA7B007900120B55740912240EEE640894
:105998000258FBEE5410604075080078081226661D
:1059A800E4F5097808122662780812266278081247
:1059B80026627508EA75090778081226629007E9D1
:1059C800E0FD7C007A007B007902120B5574091205
:1059D800240EEE64100258FBEE5402604075080075
:1059E8007808122666E4F509780812266278081203
:1059F800266278081226627508EA7509077808127F
:105A080026629007E9E0FD7C017A007B00793C1270
:105A18000B55740912240EEE64020258FBEE54046E
:105A28007003025ACA9004D5E0F875F006A4C8AA13
:105A3800F02AF974D728FA740439FBEA242AF58283
:105A4800EB3400F583E0F5087808122666EA24327C
:105A5800F582EB3400F583E0F508A3E0F50974045A
:105A680078081223D67808122662EA2420F582EBF9
:105A78003400F583122679EA242EF582EB3400F5FA
:105A880083E0F508A3E0C313F509E50813F50878E2
:105A9800081226627508EA750907780812266290C6
:105AA80007E9E0FD7C018A828B83A3A3A3A3E0FA24
:105AB8007B007900120B55740912240EEE6404025F
:105AC80058FBEE544060407508007808122666E4DA
:105AD800F5097808122662780812266278081226D4
:105AE800627508EA75090778081226629007E9E0E6
:105AF800FD7C017A007B00793B120B557409122456
:105B08000EEE64400258FBEE5480602279001213B6
:105B1800BF908AE91226757A007B019004A6E0F905
